{
  "contractName": "OracleToken",
  "abi": [
    {
      "constant": false,
      "inputs": [
        {
          "name": "_spender",
          "type": "address"
        },
        {
          "name": "_amount",
          "type": "uint256"
        }
      ],
      "name": "approve",
      "outputs": [
        {
          "name": "",
          "type": "bool"
        }
      ],
      "payable": false,
      "stateMutability": "nonpayable",
      "type": "function"
    },
    {
      "constant": true,
      "inputs": [],
      "name": "totalSupply",
      "outputs": [
        {
          "name": "",
          "type": "uint256"
        }
      ],
      "payable": false,
      "stateMutability": "view",
      "type": "function"
    },
    {
      "constant": true,
      "inputs": [],
      "name": "difficulty",
      "outputs": [
        {
          "name": "",
          "type": "uint256"
        }
      ],
      "payable": false,
      "stateMutability": "view",
      "type": "function"
    },
    {
      "constant": false,
      "inputs": [
        {
          "name": "_from",
          "type": "address"
        },
        {
          "name": "_to",
          "type": "address"
        },
        {
          "name": "_amount",
          "type": "uint256"
        }
      ],
      "name": "transferFrom",
      "outputs": [
        {
          "name": "",
          "type": "bool"
        }
      ],
      "payable": false,
      "stateMutability": "nonpayable",
      "type": "function"
    },
    {
      "constant": true,
      "inputs": [],
      "name": "total_supply",
      "outputs": [
        {
          "name": "",
          "type": "uint256"
        }
      ],
      "payable": false,
      "stateMutability": "view",
      "type": "function"
    },
    {
      "constant": true,
      "inputs": [],
      "name": "currentChallenge",
      "outputs": [
        {
          "name": "",
          "type": "bytes32"
        }
      ],
      "payable": false,
      "stateMutability": "view",
      "type": "function"
    },
    {
      "constant": true,
      "inputs": [
        {
          "name": "_owner",
          "type": "address"
        }
      ],
      "name": "balanceOf",
      "outputs": [
        {
          "name": "bal",
          "type": "uint256"
        }
      ],
      "payable": false,
      "stateMutability": "view",
      "type": "function"
    },
    {
      "constant": true,
      "inputs": [],
      "name": "oracleName",
      "outputs": [
        {
          "name": "",
          "type": "string"
        }
      ],
      "payable": false,
      "stateMutability": "view",
      "type": "function"
    },
    {
      "constant": true,
      "inputs": [],
      "name": "timeOfLastProof",
      "outputs": [
        {
          "name": "",
          "type": "uint256"
        }
      ],
      "payable": false,
      "stateMutability": "view",
      "type": "function"
    },
    {
      "constant": false,
      "inputs": [
        {
          "name": "_to",
          "type": "address"
        },
        {
          "name": "_amount",
          "type": "uint256"
        }
      ],
      "name": "transfer",
      "outputs": [
        {
          "name": "",
          "type": "bool"
        }
      ],
      "payable": false,
      "stateMutability": "nonpayable",
      "type": "function"
    },
    {
      "constant": true,
      "inputs": [
        {
          "name": "_owner",
          "type": "address"
        },
        {
          "name": "_spender",
          "type": "address"
        }
      ],
      "name": "allowance",
      "outputs": [
        {
          "name": "",
          "type": "uint256"
        }
      ],
      "payable": false,
      "stateMutability": "view",
      "type": "function"
    },
    {
      "inputs": [],
      "payable": false,
      "stateMutability": "nonpayable",
      "type": "constructor"
    },
    {
      "anonymous": false,
      "inputs": [
        {
          "indexed": true,
          "name": "to",
          "type": "address"
        },
        {
          "indexed": false,
          "name": "value",
          "type": "uint256"
        }
      ],
      "name": "Mine",
      "type": "event"
    },
    {
      "anonymous": false,
      "inputs": [
        {
          "indexed": false,
          "name": "_miner",
          "type": "address"
        },
        {
          "indexed": false,
          "name": "_value",
          "type": "uint256"
        }
      ],
      "name": "NewValue",
      "type": "event"
    },
    {
      "anonymous": false,
      "inputs": [
        {
          "indexed": true,
          "name": "owner",
          "type": "address"
        },
        {
          "indexed": true,
          "name": "spender",
          "type": "address"
        },
        {
          "indexed": false,
          "name": "value",
          "type": "uint256"
        }
      ],
      "name": "Approval",
      "type": "event"
    },
    {
      "anonymous": false,
      "inputs": [
        {
          "indexed": true,
          "name": "from",
          "type": "address"
        },
        {
          "indexed": true,
          "name": "to",
          "type": "address"
        },
        {
          "indexed": false,
          "name": "value",
          "type": "uint256"
        }
      ],
      "name": "Transfer",
      "type": "event"
    },
    {
      "constant": true,
      "inputs": [],
      "name": "getVariables",
      "outputs": [
        {
          "name": "",
          "type": "bytes32"
        },
        {
          "name": "",
          "type": "uint256"
        }
      ],
      "payable": false,
      "stateMutability": "view",
      "type": "function"
    },
    {
      "constant": false,
      "inputs": [
        {
          "name": "newOwner",
          "type": "address"
        }
      ],
      "name": "transferOwnership",
      "outputs": [],
      "payable": false,
      "stateMutability": "nonpayable",
      "type": "function"
    },
    {
      "constant": false,
      "inputs": [
        {
          "name": "_difficulty",
          "type": "uint256"
        }
      ],
      "name": "setDifficulty",
      "outputs": [],
      "payable": false,
      "stateMutability": "nonpayable",
      "type": "function"
    },
    {
      "constant": false,
      "inputs": [
        {
          "name": "nonce",
          "type": "uint256"
        },
        {
          "name": "value",
          "type": "uint256"
        }
      ],
      "name": "proofOfWork",
      "outputs": [
        {
          "name": "",
          "type": "uint256"
        }
      ],
      "payable": false,
      "stateMutability": "nonpayable",
      "type": "function"
    },
    {
      "constant": true,
      "inputs": [
        {
          "name": "_timestamp",
          "type": "uint256"
        }
      ],
      "name": "retrieveData",
      "outputs": [
        {
          "name": "",
          "type": "uint256"
        }
      ],
      "payable": false,
      "stateMutability": "view",
      "type": "function"
    },
    {
      "constant": false,
      "inputs": [
        {
          "name": "_timestamp",
          "type": "uint256"
        },
        {
          "name": "_value",
          "type": "uint256"
        }
      ],
      "name": "testAdd",
      "outputs": [],
      "payable": false,
      "stateMutability": "nonpayable",
      "type": "function"
    }
  ],
  "bytecode": "0x6080604052600160065534801561001557600080fd5b5033600160006101000a81548173ffffffffffffffffffffffffffffffffffffffff021916908373ffffffffffffffffffffffffffffffffffffffff160217905550600054600260003073ffffffffffffffffffffffffffffffffffffffff1673ffffffffffffffffffffffffffffffffffffffff168152602001908152602001600020819055504260058190555033600860006101000a81548173ffffffffffffffffffffffffffffffffffffffff021916908373ffffffffffffffffffffffffffffffffffffffff16021790555061171c806100f46000396000f3006080604052600436106100f1576000357c0100000000000000000000000000000000000000000000000000000000900463ffffffff168063095ea7b3146100f657806318160ddd1461015b57806319cae4621461018657806323b872dd146101b15780633940e9ee1461023657806351bdd585146102615780635bee29b714610294578063602512e1146102d557806361ca517b1461030257806370a082311461034d5780637c3ffef2146103a45780637d11f020146103db57806381c8149d1461046b57806394aef02214610496578063a9059cbb146104d0578063dd62ed3e14610535578063f2fde38b146105ac575b600080fd5b34801561010257600080fd5b50610141600480360381019080803573ffffffffffffffffffffffffffffffffffffffff169060200190929190803590602001909291905050506105ef565b604051808215151515815260200191505060405180910390f35b34801561016757600080fd5b506101706106e1565b6040518082815260200191505060405180910390f35b34801561019257600080fd5b5061019b6106ea565b6040518082815260200191505060405180910390f35b3480156101bd57600080fd5b5061021c600480360381019080803573ffffffffffffffffffffffffffffffffffffffff169060200190929190803573ffffffffffffffffffffffffffffffffffffffff169060200190929190803590602001909291905050506106f0565b604051808215151515815260200191505060405180910390f35b34801561024257600080fd5b5061024b610adc565b6040518082815260200191505060405180910390f35b34801561026d57600080fd5b50610276610ae2565b60405180826000191660001916815260200191505060405180910390f35b3480156102a057600080fd5b506102bf60048036038101908080359060200190929190505050610ae8565b6040518082815260200191505060405180910390f35b3480156102e157600080fd5b5061030060048036038101908080359060200190929190505050610b05565b005b34801561030e57600080fd5b506103376004803603810190808035906020019092919080359060200190929190505050610b6b565b6040518082815260200191505060405180910390f35b34801561035957600080fd5b5061038e600480360381019080803573ffffffffffffffffffffffffffffffffffffffff169060200190929190505050610e1c565b6040518082815260200191505060405180910390f35b3480156103b057600080fd5b506103d96004803603810190808035906020019092919080359060200190929190505050610e65565b005b3480156103e757600080fd5b506103f0610e81565b6040518080602001828103825283818151815260200191508051906020019080838360005b83811015610430578082015181840152602081019050610415565b50505050905090810190601f16801561045d5780820380516001836020036101000a031916815260200191505b509250505060405180910390f35b34801561047757600080fd5b50610480610f1f565b6040518082815260200191505060405180910390f35b3480156104a257600080fd5b506104ab610f25565b6040518083600019166000191681526020018281526020019250505060405180910390f35b3480156104dc57600080fd5b5061051b600480360381019080803573ffffffffffffffffffffffffffffffffffffffff16906020019092919080359060200190929190505050610f36565b604051808215151515815260200191505060405180910390f35b34801561054157600080fd5b50610596600480360381019080803573ffffffffffffffffffffffffffffffffffffffff169060200190929190803573ffffffffffffffffffffffffffffffffffffffff16906020019092919050505061119a565b6040518082815260200191505060405180910390f35b3480156105b857600080fd5b506105ed600480360381019080803573ffffffffffffffffffffffffffffffffffffffff169060200190929190505050611221565b005b600081600360003373ffffffffffffffffffffffffffffffffffffffff1673ffffffffffffffffffffffffffffffffffffffff16815260200190815260200160002060008573ffffffffffffffffffffffffffffffffffffffff1673ffffffffffffffffffffffffffffffffffffffff168152602001908152602001600020819055508273ffffffffffffffffffffffffffffffffffffffff163373ffffffffffffffffffffffffffffffffffffffff167f8c5be1e5ebec7d5bd14f71427d1e84f3dd0314c0f7b2291e5b200ac8c7c3b925846040518082815260200191505060405180910390a36001905092915050565b60008054905090565b60065481565b600081600260008673ffffffffffffffffffffffffffffffffffffffff1673ffffffffffffffffffffffffffffffffffffffff16815260200190815260200160002054101580156107bd575081600360008673ffffffffffffffffffffffffffffffffffffffff1673ffffffffffffffffffffffffffffffffffffffff16815260200190815260200160002060003373ffffffffffffffffffffffffffffffffffffffff1673ffffffffffffffffffffffffffffffffffffffff1681526020019081526020016000205410155b80156107c95750600082115b80156108545750600260008473ffffffffffffffffffffffffffffffffffffffff1673ffffffffffffffffffffffffffffffffffffffff1681526020019081526020016000205482600260008673ffffffffffffffffffffffffffffffffffffffff1673ffffffffffffffffffffffffffffffffffffffff1681526020019081526020016000205401115b15610ad05781600260008673ffffffffffffffffffffffffffffffffffffffff1673ffffffffffffffffffffffffffffffffffffffff1681526020019081526020016000205403600260008673ffffffffffffffffffffffffffffffffffffffff1673ffffffffffffffffffffffffffffffffffffffff1681526020019081526020016000208190555081600360008673ffffffffffffffffffffffffffffffffffffffff1673ffffffffffffffffffffffffffffffffffffffff16815260200190815260200160002060003373ffffffffffffffffffffffffffffffffffffffff1673ffffffffffffffffffffffffffffffffffffffff1681526020019081526020016000205403600360008673ffffffffffffffffffffffffffffffffffffffff1673ffffffffffffffffffffffffffffffffffffffff16815260200190815260200160002060003373ffffffffffffffffffffffffffffffffffffffff1673ffffffffffffffffffffffffffffffffffffffff1681526020019081526020016000208190555081600260008573ffffffffffffffffffffffffffffffffffffffff1673ffffffffffffffffffffffffffffffffffffffff1681526020019081526020016000205401600260008573ffffffffffffffffffffffffffffffffffffffff1673ffffffffffffffffffffffffffffffffffffffff168152602001908152602001600020819055508273ffffffffffffffffffffffffffffffffffffffff168473ffffffffffffffffffffffffffffffffffffffff167fddf252ad1be2c89b69c2b068fc378daa952ba7f163c4a11628f55a4df523b3ef846040518082815260200191505060405180910390a360019050610ad5565b600090505b9392505050565b60005481565b60045481565b6000600a6000838152602001908152602001600020549050919050565b600860009054906101000a900473ffffffffffffffffffffffffffffffffffffffff1673ffffffffffffffffffffffffffffffffffffffff163373ffffffffffffffffffffffffffffffffffffffff16141515610b6157600080fd5b8060068190555050565b600080600060045433866040518084600019166000191681526020018373ffffffffffffffffffffffffffffffffffffffff1673ffffffffffffffffffffffffffffffffffffffff166c0100000000000000000000000002815260140182815260200193505050506040518091039020915060006006548360019004811515610bf057fe5b06141515610bfd57600080fd5b600554420390506005811015610c1257600080fd5b60018161025860065402811515610c2557fe5b0401600681905550603c42811515610c3957fe5b06420360058190555060056007541015610d4d5760408051908101604052808581526020013373ffffffffffffffffffffffffffffffffffffffff16815250600b600754600581101515610c8957fe5b600202016000820151816000015560208201518160010160006101000a81548173ffffffffffffffffffffffffffffffffffffffff021916908373ffffffffffffffffffffffffffffffffffffffff1602179055509050507f7ecfc3facdaf96b974d20d3e0b1e6eeaf931f26e88598aaf589e2a9cf4cf991c3385604051808373ffffffffffffffffffffffffffffffffffffffff1673ffffffffffffffffffffffffffffffffffffffff1681526020018281526020019250505060405180910390a15b60056007541415610db657610d636005546112fd565b3373ffffffffffffffffffffffffffffffffffffffff167ff23a961744a760027f8811c59a0eaef0d29cf965578b17412bcc375b52fa39d1856040518082815260200191505060405180910390a2610dfd565b846004546001430340604051808481526020018360001916600019168152602001826000191660001916815260200193505050506040518091039020600481600019169055505b6007600081548092919060010191905055506007549250505092915050565b6000600260008373ffffffffffffffffffffffffffffffffffffffff1673ffffffffffffffffffffffffffffffffffffffff168152602001908152602001600020549050919050565b80600a6000848152602001908152602001600020819055505050565b60098054600181600116156101000203166002900480601f016020809104026020016040519081016040528092919081815260200182805460018160011615610100020316600290048015610f175780601f10610eec57610100808354040283529160200191610f17565b820191906000526020600020905b815481529060010190602001808311610efa57829003601f168201915b505050505081565b60055481565b600080600454600654915091509091565b600081600260003373ffffffffffffffffffffffffffffffffffffffff1673ffffffffffffffffffffffffffffffffffffffff1681526020019081526020016000205410158015610f875750600082115b80156110125750600260008473ffffffffffffffffffffffffffffffffffffffff1673ffffffffffffffffffffffffffffffffffffffff1681526020019081526020016000205482600260008673ffffffffffffffffffffffffffffffffffffffff1673ffffffffffffffffffffffffffffffffffffffff1681526020019081526020016000205401115b1561118f5781600260003373ffffffffffffffffffffffffffffffffffffffff1673ffffffffffffffffffffffffffffffffffffffff1681526020019081526020016000205403600260003373ffffffffffffffffffffffffffffffffffffffff1673ffffffffffffffffffffffffffffffffffffffff1681526020019081526020016000208190555081600260008573ffffffffffffffffffffffffffffffffffffffff1673ffffffffffffffffffffffffffffffffffffffff1681526020019081526020016000205401600260008573ffffffffffffffffffffffffffffffffffffffff1673ffffffffffffffffffffffffffffffffffffffff168152602001908152602001600020819055508273ffffffffffffffffffffffffffffffffffffffff163373ffffffffffffffffffffffffffffffffffffffff167fddf252ad1be2c89b69c2b068fc378daa952ba7f163c4a11628f55a4df523b3ef846040518082815260200191505060405180910390a360019050611194565b600090505b92915050565b6000600360008473ffffffffffffffffffffffffffffffffffffffff1673ffffffffffffffffffffffffffffffffffffffff16815260200190815260200160002060008373ffffffffffffffffffffffffffffffffffffffff1673ffffffffffffffffffffffffffffffffffffffff16815260200190815260200160002054905092915050565b600860009054906101000a900473ffffffffffffffffffffffffffffffffffffffff1673ffffffffffffffffffffffffffffffffffffffff163373ffffffffffffffffffffffffffffffffffffffff1614151561127d57600080fd5b600073ffffffffffffffffffffffffffffffffffffffff168173ffffffffffffffffffffffffffffffffffffffff16141515156112b957600080fd5b80600860006101000a81548173ffffffffffffffffffffffffffffffffffffffff021916908373ffffffffffffffffffffffffffffffffffffffff16021790555050565b61130b600b6000600461148c565b61134d600b600260058110151561131e57fe5b6002020160010160009054906101000a900473ffffffffffffffffffffffffffffffffffffffff16600a610f36565b50611390600b600160058110151561136157fe5b6002020160010160009054906101000a900473ffffffffffffffffffffffffffffffffffffffff166005610f36565b506113d3600b60036005811015156113a457fe5b6002020160010160009054906101000a900473ffffffffffffffffffffffffffffffffffffffff166005610f36565b50611416600b60006005811015156113e757fe5b6002020160010160009054906101000a900473ffffffffffffffffffffffffffffffffffffffff166001610f36565b50611459600b600460058110151561142a57fe5b6002020160010160009054906101000a900473ffffffffffffffffffffffffffffffffffffffff166001610f36565b50600b600260058110151561146a57fe5b6002020160000154600a60008381526020019081526020016000208190555050565b60008060008492508391508560028686038115156114a657fe5b0486016005811015156114b557fe5b600202016000015490505b81831115156116c0575b8086846005811015156114d957fe5b600202016000015410156114f45782806001019350506114ca565b5b858260058110151561150357fe5b6002020160000154811015611520578180600190039250506114f5565b81831115156116bb57858260058110151561153757fe5b6002020160000154868460058110151561154d57fe5b6002020160000154878560058110151561156357fe5b600202016000016000898660058110151561157a57fe5b600202016000016000849190505583919050555050858260058110151561159d57fe5b6002020160010160009054906101000a900473ffffffffffffffffffffffffffffffffffffffff1686846005811015156115d357fe5b6002020160010160009054906101000a900473ffffffffffffffffffffffffffffffffffffffff16878560058110151561160957fe5b600202016001016000898660058110151561162057fe5b6002020160010160008491906101000a81548173ffffffffffffffffffffffffffffffffffffffff021916908373ffffffffffffffffffffffffffffffffffffffff1602179055508391906101000a81548173ffffffffffffffffffffffffffffffffffffffff021916908373ffffffffffffffffffffffffffffffffffffffff160217905550505082806001019350508180600190039250505b6114c0565b818510156116d4576116d386868461148c565b5b838310156116e8576116e786848661148c565b5b5050505050505600a165627a7a7230582013593417fadfdf2d4a6095159e57e85810ed9b96e64860cccc2bb2a30dfdcec10029",
  "source": "pragma solidity ^0.4.21;\r\n\r\n\r\nimport \"./Token.sol\";\r\n/**\r\n * @title Mineable Token\r\n *\r\n * @dev Turns a wallet into a mine for a specified ERC20 token\r\n */\r\ncontract OracleToken is Token {\r\n\r\n    \r\n    /*Variables*/\r\n\r\n    bytes32 public currentChallenge;\r\n    uint public timeOfLastProof; // time of last challenge solved\r\n    uint256 public difficulty = 1; // Difficulty starts low\r\n    uint count;\r\n    address owner;\r\n    string public oracleName;\r\n    mapping(uint => uint) values;\r\n    Details[5] first_five;\r\n    struct Details {\r\n        uint value;\r\n        address miner;\r\n    }\r\n \r\n\r\n    /*Events*/\r\n    event Mine(address indexed to, uint value);\r\n    event NewValue(address _miner, uint _value);\r\n\r\n    /*Functions*/\r\n    /**\r\n     * @dev Constructor that sets the passed value as the token to be mineable.\r\n\r\n     */\r\n    constructor() public{\r\n        timeOfLastProof = now;\r\n        owner = msg.sender;\r\n    }\r\n\r\n    modifier onlyOwner() {\r\n    require(msg.sender == owner);\r\n    _;\r\n   }\r\n\r\n   function getVariables() public constant returns(bytes32, uint){\r\n    return (currentChallenge,difficulty);\r\n   }\r\n  /**\r\n   * @dev Allows the current owner to transfer control of the contract to a newOwner.\r\n   * @param newOwner The address to transfer ownership to.\r\n   */\r\n  function transferOwnership(address newOwner) onlyOwner public{\r\n    require(newOwner != address(0));\r\n    owner = newOwner;\r\n  }\r\n\r\n    /**\r\n     * @dev Change the difficulty\r\n     * @param _difficulty uint256 difficulty to be set\r\n     */\r\n    function setDifficulty(uint256 _difficulty) onlyOwner public{\r\n        difficulty = _difficulty;\r\n    }\r\n    /**\r\n     * @dev Proof of work to be done for mining\r\n     * @param nonce uint\r\n     * @return uint The amount rewarded\r\n     */\r\n\r\n    function proofOfWork(uint nonce, uint value) returns (uint256) {\r\n        bytes32 n = sha3(currentChallenge,msg.sender,nonce); // generate random hash based on input\r\n        if (uint(n) % difficulty !=0) revert();\r\n        uint timeSinceLastProof = (now - timeOfLastProof); // Calculate time since last reward\r\n        if (timeSinceLastProof < 5 seconds) revert(); // Do not reward too quickly\r\n        difficulty = difficulty * 10 minutes / timeSinceLastProof + 1; // Adjusts the difficult\r\n        timeOfLastProof = now - (now % 60);\r\n        if (count<5) {\r\n           first_five[count] = Details({\r\n                value: value,\r\n                miner: msg.sender\r\n            });  \r\n           emit NewValue(msg.sender,value);\r\n        } \r\n        if(count==5) {\r\n            pushValue(timeOfLastProof);\r\n            emit Mine(msg.sender, value); // execute an event reflecting the change\r\n        }\r\n        else {\r\n        currentChallenge = sha3(nonce, currentChallenge, block.blockhash(block.number - 1)); // Save hash for next proof\r\n        }\r\n        count++;\r\n        return (count);\r\n    }\r\n\r\n    function pushValue(uint _time) internal {\r\n        quickSort(first_five,0,4);\r\n        transfer(first_five[2].miner, 10); // reward to winner grows over time\r\n        transfer(first_five[1].miner, 5); // reward to winner grows over time\r\n        transfer(first_five[3].miner, 5); // reward to winner grows over time\r\n        transfer(first_five[0].miner, 1); // reward to winner grows over time\r\n        transfer(first_five[4].miner, 1); // reward to winner grows over time\r\n        values[_time] = first_five[2].value;\r\n    }\r\n\r\n    function retrieveData(uint _timestamp) public constant returns (uint) {\r\n        return values[_timestamp];\r\n    }\r\n\r\n\r\n    function testAdd(uint _timestamp, uint _value) public{\r\n      values[_timestamp] = _value;\r\n    }\r\n\r\n     function quickSort(Details[5] storage arr, uint left, uint right) internal {\r\n        uint i = left;\r\n        uint j = right;\r\n        uint pivot = arr[left + (right - left) / 2].value;\r\n        while (i <= j) {\r\n            while (arr[i].value < pivot) i++;\r\n            while (pivot < arr[j].value) j--;\r\n            if (i <= j) {\r\n                (arr[i].value, arr[j].value) = (arr[j].value, arr[i].value);\r\n                (arr[i].miner, arr[j].miner) = (arr[j].miner, arr[i].miner);\r\n                i++;\r\n                j--;\r\n            }\r\n        }\r\n        if (left < j)\r\n            quickSort(arr, left, j);\r\n        if (i < right)\r\n            quickSort(arr, i, right);\r\n    }\r\n\r\n\r\n    \r\n}",
  "sourcePath": "C:\\users\\lloya\\documents\\angelhack\\angelHackTeam\\contracts\\OracleToken.sol",
  "compiler": {
    "name": "solc",
    "version": "0.4.24+commit.e67f0147.Emscripten.clang"
  },
  "schemaVersion": "2.0.0",
  "updatedAt": "2018-07-08T00:56:28.788Z"
}