{
  "contractName": "OracleToken",
  "abi": [
    {
      "constant": false,
      "inputs": [
        {
          "name": "_spender",
          "type": "address"
        },
        {
          "name": "_amount",
          "type": "uint256"
        }
      ],
      "name": "approve",
      "outputs": [
        {
          "name": "",
          "type": "bool"
        }
      ],
      "payable": false,
      "stateMutability": "nonpayable",
      "type": "function"
    },
    {
      "constant": true,
      "inputs": [],
      "name": "totalSupply",
      "outputs": [
        {
          "name": "",
          "type": "uint256"
        }
      ],
      "payable": false,
      "stateMutability": "view",
      "type": "function"
    },
    {
      "constant": true,
      "inputs": [],
      "name": "difficulty",
      "outputs": [
        {
          "name": "",
          "type": "uint256"
        }
      ],
      "payable": false,
      "stateMutability": "view",
      "type": "function"
    },
    {
      "constant": false,
      "inputs": [
        {
          "name": "_from",
          "type": "address"
        },
        {
          "name": "_to",
          "type": "address"
        },
        {
          "name": "_amount",
          "type": "uint256"
        }
      ],
      "name": "transferFrom",
      "outputs": [
        {
          "name": "",
          "type": "bool"
        }
      ],
      "payable": false,
      "stateMutability": "nonpayable",
      "type": "function"
    },
    {
      "constant": true,
      "inputs": [],
      "name": "total_supply",
      "outputs": [
        {
          "name": "",
          "type": "uint256"
        }
      ],
      "payable": false,
      "stateMutability": "view",
      "type": "function"
    },
    {
      "constant": true,
      "inputs": [],
      "name": "currentChallenge",
      "outputs": [
        {
          "name": "",
          "type": "bytes32"
        }
      ],
      "payable": false,
      "stateMutability": "view",
      "type": "function"
    },
    {
      "constant": true,
      "inputs": [
        {
          "name": "_owner",
          "type": "address"
        }
      ],
      "name": "balanceOf",
      "outputs": [
        {
          "name": "bal",
          "type": "uint256"
        }
      ],
      "payable": false,
      "stateMutability": "view",
      "type": "function"
    },
    {
      "constant": true,
      "inputs": [],
      "name": "baseReward",
      "outputs": [
        {
          "name": "",
          "type": "uint256"
        }
      ],
      "payable": false,
      "stateMutability": "view",
      "type": "function"
    },
    {
      "constant": true,
      "inputs": [],
      "name": "timeOfLastProof",
      "outputs": [
        {
          "name": "",
          "type": "uint256"
        }
      ],
      "payable": false,
      "stateMutability": "view",
      "type": "function"
    },
    {
      "constant": false,
      "inputs": [
        {
          "name": "_to",
          "type": "address"
        },
        {
          "name": "_amount",
          "type": "uint256"
        }
      ],
      "name": "transfer",
      "outputs": [
        {
          "name": "",
          "type": "bool"
        }
      ],
      "payable": false,
      "stateMutability": "nonpayable",
      "type": "function"
    },
    {
      "constant": true,
      "inputs": [],
      "name": "incrementalRewards",
      "outputs": [
        {
          "name": "",
          "type": "bool"
        }
      ],
      "payable": false,
      "stateMutability": "view",
      "type": "function"
    },
    {
      "constant": true,
      "inputs": [
        {
          "name": "_owner",
          "type": "address"
        },
        {
          "name": "_spender",
          "type": "address"
        }
      ],
      "name": "allowance",
      "outputs": [
        {
          "name": "",
          "type": "uint256"
        }
      ],
      "payable": false,
      "stateMutability": "view",
      "type": "function"
    },
    {
      "inputs": [],
      "payable": false,
      "stateMutability": "nonpayable",
      "type": "constructor"
    },
    {
      "anonymous": false,
      "inputs": [
        {
          "indexed": true,
          "name": "to",
          "type": "address"
        },
        {
          "indexed": false,
          "name": "value",
          "type": "uint256"
        }
      ],
      "name": "Mine",
      "type": "event"
    },
    {
      "anonymous": false,
      "inputs": [
        {
          "indexed": true,
          "name": "owner",
          "type": "address"
        },
        {
          "indexed": true,
          "name": "spender",
          "type": "address"
        },
        {
          "indexed": false,
          "name": "value",
          "type": "uint256"
        }
      ],
      "name": "Approval",
      "type": "event"
    },
    {
      "anonymous": false,
      "inputs": [
        {
          "indexed": true,
          "name": "from",
          "type": "address"
        },
        {
          "indexed": true,
          "name": "to",
          "type": "address"
        },
        {
          "indexed": false,
          "name": "value",
          "type": "uint256"
        }
      ],
      "name": "Transfer",
      "type": "event"
    },
    {
      "constant": false,
      "inputs": [
        {
          "name": "newOwner",
          "type": "address"
        }
      ],
      "name": "transferOwnership",
      "outputs": [],
      "payable": false,
      "stateMutability": "nonpayable",
      "type": "function"
    },
    {
      "constant": false,
      "inputs": [
        {
          "name": "_difficulty",
          "type": "uint256"
        }
      ],
      "name": "setDifficulty",
      "outputs": [],
      "payable": false,
      "stateMutability": "nonpayable",
      "type": "function"
    },
    {
      "constant": false,
      "inputs": [
        {
          "name": "_percent",
          "type": "uint256"
        }
      ],
      "name": "setMaxRewardPercentOfTotal",
      "outputs": [],
      "payable": false,
      "stateMutability": "nonpayable",
      "type": "function"
    },
    {
      "constant": false,
      "inputs": [
        {
          "name": "_baseReward",
          "type": "uint256"
        }
      ],
      "name": "setBaseReward",
      "outputs": [],
      "payable": false,
      "stateMutability": "nonpayable",
      "type": "function"
    },
    {
      "constant": false,
      "inputs": [
        {
          "name": "_shouldRewardIncrement",
          "type": "bool"
        }
      ],
      "name": "isIncremental",
      "outputs": [],
      "payable": false,
      "stateMutability": "nonpayable",
      "type": "function"
    },
    {
      "constant": false,
      "inputs": [
        {
          "name": "nonce",
          "type": "uint256"
        },
        {
          "name": "value",
          "type": "uint256"
        }
      ],
      "name": "proofOfWork",
      "outputs": [
        {
          "name": "",
          "type": "uint256"
        }
      ],
      "payable": false,
      "stateMutability": "nonpayable",
      "type": "function"
    },
    {
      "constant": true,
      "inputs": [
        {
          "name": "_timestamp",
          "type": "uint256"
        }
      ],
      "name": "retrieveData",
      "outputs": [
        {
          "name": "",
          "type": "uint256"
        }
      ],
      "payable": false,
      "stateMutability": "view",
      "type": "function"
    },
    {
      "constant": false,
      "inputs": [
        {
          "name": "_timestamp",
          "type": "uint256"
        },
        {
          "name": "_value",
          "type": "uint256"
        }
      ],
      "name": "testAdd",
      "outputs": [],
      "payable": false,
      "stateMutability": "nonpayable",
      "type": "function"
    }
  ],
  "bytecode": "0x60806040527fffffffffffffffffffffffffffffffffffffffffffffffffffffffffffffffff60065560016007556001600860006101000a81548160ff0219169083151502179055506032600a5534801561005957600080fd5b5033600160006101000a81548173ffffffffffffffffffffffffffffffffffffffff021916908373ffffffffffffffffffffffffffffffffffffffff160217905550600054600260003073ffffffffffffffffffffffffffffffffffffffff1673ffffffffffffffffffffffffffffffffffffffff168152602001908152602001600020819055504260058190555033600b60006101000a81548173ffffffffffffffffffffffffffffffffffffffff021916908373ffffffffffffffffffffffffffffffffffffffff16021790555061176b806101386000396000f300608060405260043610610112576000357c0100000000000000000000000000000000000000000000000000000000900463ffffffff1680630373a23a14610117578063095ea7b31461014457806318160ddd146101a957806319cae462146101d457806323b872dd146101ff5780633940e9ee1461028457806351bdd585146102af5780635b3b98a5146102e25780635bee29b714610311578063602512e11461035257806361ca517b1461037f57806370a08231146103ca57806376ad03bc146104215780637b262df21461044c5780637c3ffef21461047957806381c8149d146104b0578063a9059cbb146104db578063b90546aa14610540578063dd62ed3e1461056f578063f2fde38b146105e6575b600080fd5b34801561012357600080fd5b5061014260048036038101908080359060200190929190505050610629565b005b34801561015057600080fd5b5061018f600480360381019080803573ffffffffffffffffffffffffffffffffffffffff1690602001909291908035906020019092919050505061068f565b604051808215151515815260200191505060405180910390f35b3480156101b557600080fd5b506101be610781565b6040518082815260200191505060405180910390f35b3480156101e057600080fd5b506101e961078a565b6040518082815260200191505060405180910390f35b34801561020b57600080fd5b5061026a600480360381019080803573ffffffffffffffffffffffffffffffffffffffff169060200190929190803573ffffffffffffffffffffffffffffffffffffffff16906020019092919080359060200190929190505050610790565b604051808215151515815260200191505060405180910390f35b34801561029057600080fd5b50610299610b7c565b6040518082815260200191505060405180910390f35b3480156102bb57600080fd5b506102c4610b82565b60405180826000191660001916815260200191505060405180910390f35b3480156102ee57600080fd5b5061030f600480360381019080803515159060200190929190505050610b88565b005b34801561031d57600080fd5b5061033c60048036038101908080359060200190929190505050610c01565b6040518082815260200191505060405180910390f35b34801561035e57600080fd5b5061037d60048036038101908080359060200190929190505050610c1e565b005b34801561038b57600080fd5b506103b46004803603810190808035906020019092919080359060200190929190505050610c84565b6040518082815260200191505060405180910390f35b3480156103d657600080fd5b5061040b600480360381019080803573ffffffffffffffffffffffffffffffffffffffff169060200190929190505050610e82565b6040518082815260200191505060405180910390f35b34801561042d57600080fd5b50610436610ecb565b6040518082815260200191505060405180910390f35b34801561045857600080fd5b5061047760048036038101908080359060200190929190505050610ed1565b005b34801561048557600080fd5b506104ae6004803603810190808035906020019092919080359060200190929190505050610f50565b005b3480156104bc57600080fd5b506104c5610f6c565b6040518082815260200191505060405180910390f35b3480156104e757600080fd5b50610526600480360381019080803573ffffffffffffffffffffffffffffffffffffffff16906020019092919080359060200190929190505050610f72565b604051808215151515815260200191505060405180910390f35b34801561054c57600080fd5b506105556111d6565b604051808215151515815260200191505060405180910390f35b34801561057b57600080fd5b506105d0600480360381019080803573ffffffffffffffffffffffffffffffffffffffff169060200190929190803573ffffffffffffffffffffffffffffffffffffffff1690602001909291905050506111e9565b6040518082815260200191505060405180910390f35b3480156105f257600080fd5b50610627600480360381019080803573ffffffffffffffffffffffffffffffffffffffff169060200190929190505050611270565b005b600b60009054906101000a900473ffffffffffffffffffffffffffffffffffffffff1673ffffffffffffffffffffffffffffffffffffffff163373ffffffffffffffffffffffffffffffffffffffff1614151561068557600080fd5b8060078190555050565b600081600360003373ffffffffffffffffffffffffffffffffffffffff1673ffffffffffffffffffffffffffffffffffffffff16815260200190815260200160002060008573ffffffffffffffffffffffffffffffffffffffff1673ffffffffffffffffffffffffffffffffffffffff168152602001908152602001600020819055508273ffffffffffffffffffffffffffffffffffffffff163373ffffffffffffffffffffffffffffffffffffffff167f8c5be1e5ebec7d5bd14f71427d1e84f3dd0314c0f7b2291e5b200ac8c7c3b925846040518082815260200191505060405180910390a36001905092915050565b60008054905090565b60065481565b600081600260008673ffffffffffffffffffffffffffffffffffffffff1673ffffffffffffffffffffffffffffffffffffffff168152602001908152602001600020541015801561085d575081600360008673ffffffffffffffffffffffffffffffffffffffff1673ffffffffffffffffffffffffffffffffffffffff16815260200190815260200160002060003373ffffffffffffffffffffffffffffffffffffffff1673ffffffffffffffffffffffffffffffffffffffff1681526020019081526020016000205410155b80156108695750600082115b80156108f45750600260008473ffffffffffffffffffffffffffffffffffffffff1673ffffffffffffffffffffffffffffffffffffffff1681526020019081526020016000205482600260008673ffffffffffffffffffffffffffffffffffffffff1673ffffffffffffffffffffffffffffffffffffffff1681526020019081526020016000205401115b15610b705781600260008673ffffffffffffffffffffffffffffffffffffffff1673ffffffffffffffffffffffffffffffffffffffff1681526020019081526020016000205403600260008673ffffffffffffffffffffffffffffffffffffffff1673ffffffffffffffffffffffffffffffffffffffff1681526020019081526020016000208190555081600360008673ffffffffffffffffffffffffffffffffffffffff1673ffffffffffffffffffffffffffffffffffffffff16815260200190815260200160002060003373ffffffffffffffffffffffffffffffffffffffff1673ffffffffffffffffffffffffffffffffffffffff1681526020019081526020016000205403600360008673ffffffffffffffffffffffffffffffffffffffff1673ffffffffffffffffffffffffffffffffffffffff16815260200190815260200160002060003373ffffffffffffffffffffffffffffffffffffffff1673ffffffffffffffffffffffffffffffffffffffff1681526020019081526020016000208190555081600260008573ffffffffffffffffffffffffffffffffffffffff1673ffffffffffffffffffffffffffffffffffffffff1681526020019081526020016000205401600260008573ffffffffffffffffffffffffffffffffffffffff1673ffffffffffffffffffffffffffffffffffffffff168152602001908152602001600020819055508273ffffffffffffffffffffffffffffffffffffffff168473ffffffffffffffffffffffffffffffffffffffff167fddf252ad1be2c89b69c2b068fc378daa952ba7f163c4a11628f55a4df523b3ef846040518082815260200191505060405180910390a360019050610b75565b600090505b9392505050565b60005481565b60045481565b600b60009054906101000a900473ffffffffffffffffffffffffffffffffffffffff1673ffffffffffffffffffffffffffffffffffffffff163373ffffffffffffffffffffffffffffffffffffffff16141515610be457600080fd5b80600860006101000a81548160ff02191690831515021790555050565b6000600d6000838152602001908152602001600020549050919050565b600b60009054906101000a900473ffffffffffffffffffffffffffffffffffffffff1673ffffffffffffffffffffffffffffffffffffffff163373ffffffffffffffffffffffffffffffffffffffff16141515610c7a57600080fd5b8060068190555050565b60008060008460045460405180838152602001826000191660001916815260200192505050604051809103902091506006546001026000191682600019161115610ccd57600080fd5b600554420390506005811015610ce257600080fd5b60018161025860065402811515610cf557fe5b0401600681905550610e1042811515610d0a57fe5b06420360058190555060056009541015610db35760408051908101604052808581526020013373ffffffffffffffffffffffffffffffffffffffff16815250600e600954600581101515610d5a57fe5b600202016000820151816000015560208201518160010160006101000a81548173ffffffffffffffffffffffffffffffffffffffff021916908373ffffffffffffffffffffffffffffffffffffffff1602179055509050505b60056009541415610e1c57610dc960055461134c565b3373ffffffffffffffffffffffffffffffffffffffff167ff23a961744a760027f8811c59a0eaef0d29cf965578b17412bcc375b52fa39d1856040518082815260200191505060405180910390a2610e63565b846004546001430340604051808481526020018360001916600019168152602001826000191660001916815260200193505050506040518091039020600481600019169055505b6009600081548092919060010191905055506009549250505092915050565b6000600260008373ffffffffffffffffffffffffffffffffffffffff1673ffffffffffffffffffffffffffffffffffffffff168152602001908152602001600020549050919050565b60075481565b600b60009054906101000a900473ffffffffffffffffffffffffffffffffffffffff1673ffffffffffffffffffffffffffffffffffffffff163373ffffffffffffffffffffffffffffffffffffffff16141515610f2d57600080fd5b6001811080610f3c5750606481115b15610f4657600080fd5b80600a8190555050565b80600d6000848152602001908152602001600020819055505050565b60055481565b600081600260003373ffffffffffffffffffffffffffffffffffffffff1673ffffffffffffffffffffffffffffffffffffffff1681526020019081526020016000205410158015610fc35750600082115b801561104e5750600260008473ffffffffffffffffffffffffffffffffffffffff1673ffffffffffffffffffffffffffffffffffffffff1681526020019081526020016000205482600260008673ffffffffffffffffffffffffffffffffffffffff1673ffffffffffffffffffffffffffffffffffffffff1681526020019081526020016000205401115b156111cb5781600260003373ffffffffffffffffffffffffffffffffffffffff1673ffffffffffffffffffffffffffffffffffffffff1681526020019081526020016000205403600260003373ffffffffffffffffffffffffffffffffffffffff1673ffffffffffffffffffffffffffffffffffffffff1681526020019081526020016000208190555081600260008573ffffffffffffffffffffffffffffffffffffffff1673ffffffffffffffffffffffffffffffffffffffff1681526020019081526020016000205401600260008573ffffffffffffffffffffffffffffffffffffffff1673ffffffffffffffffffffffffffffffffffffffff168152602001908152602001600020819055508273ffffffffffffffffffffffffffffffffffffffff163373ffffffffffffffffffffffffffffffffffffffff167fddf252ad1be2c89b69c2b068fc378daa952ba7f163c4a11628f55a4df523b3ef846040518082815260200191505060405180910390a3600190506111d0565b600090505b92915050565b600860009054906101000a900460ff1681565b6000600360008473ffffffffffffffffffffffffffffffffffffffff1673ffffffffffffffffffffffffffffffffffffffff16815260200190815260200160002060008373ffffffffffffffffffffffffffffffffffffffff1673ffffffffffffffffffffffffffffffffffffffff16815260200190815260200160002054905092915050565b600b60009054906101000a900473ffffffffffffffffffffffffffffffffffffffff1673ffffffffffffffffffffffffffffffffffffffff163373ffffffffffffffffffffffffffffffffffffffff161415156112cc57600080fd5b600073ffffffffffffffffffffffffffffffffffffffff168173ffffffffffffffffffffffffffffffffffffffff161415151561130857600080fd5b80600b60006101000a81548173ffffffffffffffffffffffffffffffffffffffff021916908373ffffffffffffffffffffffffffffffffffffffff16021790555050565b61135a600e600060046114db565b61139c600e600260058110151561136d57fe5b6002020160010160009054906101000a900473ffffffffffffffffffffffffffffffffffffffff16600a610f72565b506113df600e60016005811015156113b057fe5b6002020160010160009054906101000a900473ffffffffffffffffffffffffffffffffffffffff166005610f72565b50611422600e60036005811015156113f357fe5b6002020160010160009054906101000a900473ffffffffffffffffffffffffffffffffffffffff166005610f72565b50611465600e600060058110151561143657fe5b6002020160010160009054906101000a900473ffffffffffffffffffffffffffffffffffffffff166001610f72565b506114a8600e600460058110151561147957fe5b6002020160010160009054906101000a900473ffffffffffffffffffffffffffffffffffffffff166001610f72565b50600e60026005811015156114b957fe5b6002020160000154600d60008381526020019081526020016000208190555050565b60008060008492508391508560028686038115156114f557fe5b04860160058110151561150457fe5b600202016000015490505b818311151561170f575b80868460058110151561152857fe5b60020201600001541015611543578280600101935050611519565b5b858260058110151561155257fe5b600202016000015481101561156f57818060019003925050611544565b818311151561170a57858260058110151561158657fe5b6002020160000154868460058110151561159c57fe5b600202016000015487856005811015156115b257fe5b60020201600001600089866005811015156115c957fe5b60020201600001600084919050558391905055505085826005811015156115ec57fe5b6002020160010160009054906101000a900473ffffffffffffffffffffffffffffffffffffffff16868460058110151561162257fe5b6002020160010160009054906101000a900473ffffffffffffffffffffffffffffffffffffffff16878560058110151561165857fe5b600202016001016000898660058110151561166f57fe5b6002020160010160008491906101000a81548173ffffffffffffffffffffffffffffffffffffffff021916908373ffffffffffffffffffffffffffffffffffffffff1602179055508391906101000a81548173ffffffffffffffffffffffffffffffffffffffff021916908373ffffffffffffffffffffffffffffffffffffffff160217905550505082806001019350508180600190039250505b61150f565b81851015611723576117228686846114db565b5b83831015611737576117368684866114db565b5b5050505050505600a165627a7a72305820a4f0b0b0aa2275f65b08794970dbe4f1ffa386821a7b5e9d9a379f9c85b2baae0029",
  "source": "pragma solidity ^0.4.21;\r\n\r\n\r\nimport \"./Token.sol\";\r\n/**\r\n * @title Mineable Token\r\n *\r\n * @dev Turns a wallet into a mine for a specified ERC20 token\r\n */\r\ncontract OracleToken is Token {\r\n\r\n    \r\n    /*Variables*/\r\n\r\n    bytes32 public currentChallenge;\r\n    uint public timeOfLastProof; // time of last challenge solved\r\n    uint256 public difficulty = 2**256 - 1; // Difficulty starts low\r\n    uint256 public baseReward = 1;\r\n    bool public incrementalRewards = true;\r\n    uint count;\r\n\r\n    uint maxRewardPercent = 50;\r\n    address owner;\r\n    string oracleName;\r\n    mapping(uint => uint) values;\r\n    Details[5] first_five;\r\n    struct Details {\r\n        uint value;\r\n        address miner;\r\n    }\r\n \r\n\r\n    /*Events*/\r\n    event Mine(address indexed to, uint value);\r\n\r\n    /*Functions*/\r\n    /**\r\n     * @dev Constructor that sets the passed value as the token to be mineable.\r\n\r\n     */\r\n    constructor() public{\r\n        timeOfLastProof = now;\r\n        owner = msg.sender;\r\n    }\r\n\r\n    modifier onlyOwner() {\r\n    require(msg.sender == owner);\r\n    _;\r\n   }\r\n\r\n\r\n  /**\r\n   * @dev Allows the current owner to transfer control of the contract to a newOwner.\r\n   * @param newOwner The address to transfer ownership to.\r\n   */\r\n  function transferOwnership(address newOwner) onlyOwner public{\r\n    require(newOwner != address(0));\r\n    owner = newOwner;\r\n  }\r\n\r\n    /**\r\n     * @dev Change the difficulty\r\n     * @param _difficulty uint256 difficulty to be set\r\n     */\r\n    function setDifficulty(uint256 _difficulty) onlyOwner public{\r\n        difficulty = _difficulty;\r\n    }\r\n\r\n    /**\r\n     * @dev Change the maximum percent of the total supply that can be rewarded\r\n     * @param _percent uint Maximum percent of the total supply to be rewarded\r\n     */\r\n    function setMaxRewardPercentOfTotal(uint _percent) onlyOwner public {\r\n        if (_percent < 1 || _percent > 100) revert();\r\n        maxRewardPercent = _percent;\r\n    }\r\n\r\n    /**\r\n     * @dev Change the reward\r\n     * @param _baseReward uint256 base reward given when not incremental\r\n     */\r\n    function setBaseReward(uint256 _baseReward) onlyOwner public {\r\n        baseReward = _baseReward;\r\n    }\r\n\r\n    /**\r\n     * @dev Change if the reward should increment or not\r\n     * @param _shouldRewardIncrement bool Wehether the reward should be incremental or not\r\n     */\r\n    function isIncremental(bool _shouldRewardIncrement) onlyOwner public {\r\n        incrementalRewards = _shouldRewardIncrement;\r\n    }\r\n\r\n\r\n\r\n\r\n\r\n\r\n\r\n    /**\r\n     * @dev Proof of work to be done for mining\r\n     * @param nonce uint\r\n     * @return uint The amount rewarded\r\n     */\r\n\r\n    function proofOfWork(uint nonce, uint value) returns (uint256) {\r\n        bytes32 n = sha3(nonce, currentChallenge); // generate random hash based on input\r\n        if (n > bytes32(difficulty)) revert();\r\n        uint timeSinceLastProof = (now - timeOfLastProof); // Calculate time since last reward\r\n        if (timeSinceLastProof < 5 seconds) revert(); // Do not reward too quickly\r\n        difficulty = difficulty * 10 minutes / timeSinceLastProof + 1; // Adjusts the difficulty\r\n\r\n\r\n        timeOfLastProof = now - (now % 3600);\r\n\r\n        if (count<5) {\r\n           first_five[count] = Details({\r\n                value: value,\r\n                miner: msg.sender\r\n            });  \r\n        } \r\n        if(count==5) {\r\n            pushValue(timeOfLastProof);\r\n            emit Mine(msg.sender, value); // execute an event reflecting the change\r\n        }\r\n        else {\r\n        currentChallenge = sha3(nonce, currentChallenge, block.blockhash(block.number - 1)); // Save hash for next proof\r\n        }\r\n        count++;\r\n        return (count);\r\n    }\r\n\r\n    function pushValue(uint _time) internal {\r\n        quickSort(first_five,0,4);\r\n        transfer(first_five[2].miner, 10); // reward to winner grows over time\r\n        transfer(first_five[1].miner, 5); // reward to winner grows over time\r\n        transfer(first_five[3].miner, 5); // reward to winner grows over time\r\n        transfer(first_five[0].miner, 1); // reward to winner grows over time\r\n        transfer(first_five[4].miner, 1); // reward to winner grows over time\r\n        values[_time] = first_five[2].value;\r\n    }\r\n\r\n    function retrieveData(uint _timestamp) public constant returns (uint) {\r\n        return values[_timestamp];\r\n    }\r\n\r\n\r\n    function testAdd(uint _timestamp, uint _value) public{\r\n      values[_timestamp] = _value;\r\n    }\r\n\r\n     function quickSort(Details[5] storage arr, uint left, uint right) internal {\r\n        uint i = left;\r\n        uint j = right;\r\n        uint pivot = arr[left + (right - left) / 2].value;\r\n        while (i <= j) {\r\n            while (arr[i].value < pivot) i++;\r\n            while (pivot < arr[j].value) j--;\r\n            if (i <= j) {\r\n                (arr[i].value, arr[j].value) = (arr[j].value, arr[i].value);\r\n                (arr[i].miner, arr[j].miner) = (arr[j].miner, arr[i].miner);\r\n                i++;\r\n                j--;\r\n            }\r\n        }\r\n        if (left < j)\r\n            quickSort(arr, left, j);\r\n        if (i < right)\r\n            quickSort(arr, i, right);\r\n    }\r\n\r\n\r\n    \r\n}",
  "sourcePath": "C:\\company\\code\\angelhackteam\\contracts\\OracleToken.sol",
  "compiler": {
    "name": "solc",
    "version": "0.4.24+commit.e67f0147.Emscripten.clang"
  },
  "schemaVersion": "2.0.0",
  "updatedAt": "2018-07-07T22:52:00.120Z"
}