{
  "contractName": "OracleToken",
  "abi": [
    {
      "constant": false,
      "inputs": [
        {
          "name": "_spender",
          "type": "address"
        },
        {
          "name": "_amount",
          "type": "uint256"
        }
      ],
      "name": "approve",
      "outputs": [
        {
          "name": "",
          "type": "bool"
        }
      ],
      "payable": false,
      "stateMutability": "nonpayable",
      "type": "function"
    },
    {
      "constant": true,
      "inputs": [],
      "name": "totalSupply",
      "outputs": [
        {
          "name": "",
          "type": "uint256"
        }
      ],
      "payable": false,
      "stateMutability": "view",
      "type": "function"
    },
    {
      "constant": true,
      "inputs": [],
      "name": "difficulty",
      "outputs": [
        {
          "name": "",
          "type": "uint256"
        }
      ],
      "payable": false,
      "stateMutability": "view",
      "type": "function"
    },
    {
      "constant": false,
      "inputs": [
        {
          "name": "_from",
          "type": "address"
        },
        {
          "name": "_to",
          "type": "address"
        },
        {
          "name": "_amount",
          "type": "uint256"
        }
      ],
      "name": "transferFrom",
      "outputs": [
        {
          "name": "",
          "type": "bool"
        }
      ],
      "payable": false,
      "stateMutability": "nonpayable",
      "type": "function"
    },
    {
      "constant": true,
      "inputs": [],
      "name": "total_supply",
      "outputs": [
        {
          "name": "",
          "type": "uint256"
        }
      ],
      "payable": false,
      "stateMutability": "view",
      "type": "function"
    },
    {
      "constant": true,
      "inputs": [],
      "name": "currentChallenge",
      "outputs": [
        {
          "name": "",
          "type": "bytes32"
        }
      ],
      "payable": false,
      "stateMutability": "view",
      "type": "function"
    },
    {
      "constant": true,
      "inputs": [
        {
          "name": "_owner",
          "type": "address"
        }
      ],
      "name": "balanceOf",
      "outputs": [
        {
          "name": "bal",
          "type": "uint256"
        }
      ],
      "payable": false,
      "stateMutability": "view",
      "type": "function"
    },
    {
      "constant": true,
      "inputs": [],
      "name": "baseReward",
      "outputs": [
        {
          "name": "",
          "type": "uint256"
        }
      ],
      "payable": false,
      "stateMutability": "view",
      "type": "function"
    },
    {
      "constant": true,
      "inputs": [],
      "name": "timeOfLastProof",
      "outputs": [
        {
          "name": "",
          "type": "uint256"
        }
      ],
      "payable": false,
      "stateMutability": "view",
      "type": "function"
    },
    {
      "constant": false,
      "inputs": [
        {
          "name": "_to",
          "type": "address"
        },
        {
          "name": "_amount",
          "type": "uint256"
        }
      ],
      "name": "transfer",
      "outputs": [
        {
          "name": "",
          "type": "bool"
        }
      ],
      "payable": false,
      "stateMutability": "nonpayable",
      "type": "function"
    },
    {
      "constant": true,
      "inputs": [],
      "name": "incrementalRewards",
      "outputs": [
        {
          "name": "",
          "type": "bool"
        }
      ],
      "payable": false,
      "stateMutability": "view",
      "type": "function"
    },
    {
      "constant": true,
      "inputs": [
        {
          "name": "_owner",
          "type": "address"
        },
        {
          "name": "_spender",
          "type": "address"
        }
      ],
      "name": "allowance",
      "outputs": [
        {
          "name": "",
          "type": "uint256"
        }
      ],
      "payable": false,
      "stateMutability": "view",
      "type": "function"
    },
    {
      "inputs": [],
      "payable": false,
      "stateMutability": "nonpayable",
      "type": "constructor"
    },
    {
      "anonymous": false,
      "inputs": [
        {
          "indexed": true,
          "name": "to",
          "type": "address"
        },
        {
          "indexed": false,
          "name": "value",
          "type": "uint256"
        }
      ],
      "name": "Mine",
      "type": "event"
    },
    {
      "anonymous": false,
      "inputs": [
        {
          "indexed": true,
          "name": "owner",
          "type": "address"
        },
        {
          "indexed": true,
          "name": "spender",
          "type": "address"
        },
        {
          "indexed": false,
          "name": "value",
          "type": "uint256"
        }
      ],
      "name": "Approval",
      "type": "event"
    },
    {
      "anonymous": false,
      "inputs": [
        {
          "indexed": true,
          "name": "from",
          "type": "address"
        },
        {
          "indexed": true,
          "name": "to",
          "type": "address"
        },
        {
          "indexed": false,
          "name": "value",
          "type": "uint256"
        }
      ],
      "name": "Transfer",
      "type": "event"
    },
    {
      "constant": false,
      "inputs": [
        {
          "name": "newOwner",
          "type": "address"
        }
      ],
      "name": "transferOwnership",
      "outputs": [],
      "payable": false,
      "stateMutability": "nonpayable",
      "type": "function"
    },
    {
      "constant": false,
      "inputs": [
        {
          "name": "_difficulty",
          "type": "uint256"
        }
      ],
      "name": "setDifficulty",
      "outputs": [],
      "payable": false,
      "stateMutability": "nonpayable",
      "type": "function"
    },
    {
      "constant": false,
      "inputs": [
        {
          "name": "_percent",
          "type": "uint256"
        }
      ],
      "name": "setMaxRewardPercentOfTotal",
      "outputs": [],
      "payable": false,
      "stateMutability": "nonpayable",
      "type": "function"
    },
    {
      "constant": false,
      "inputs": [
        {
          "name": "_baseReward",
          "type": "uint256"
        }
      ],
      "name": "setBaseReward",
      "outputs": [],
      "payable": false,
      "stateMutability": "nonpayable",
      "type": "function"
    },
    {
      "constant": false,
      "inputs": [
        {
          "name": "_shouldRewardIncrement",
          "type": "bool"
        }
      ],
      "name": "isIncremental",
      "outputs": [],
      "payable": false,
      "stateMutability": "nonpayable",
      "type": "function"
    },
    {
      "constant": false,
      "inputs": [
        {
          "name": "nonce",
          "type": "uint256"
        },
        {
          "name": "value",
          "type": "uint256"
        }
      ],
      "name": "proofOfWork",
      "outputs": [
        {
          "name": "",
          "type": "uint256"
        }
      ],
      "payable": false,
      "stateMutability": "nonpayable",
      "type": "function"
    },
    {
      "constant": true,
      "inputs": [
        {
          "name": "_timestamp",
          "type": "uint256"
        }
      ],
      "name": "retrieveData",
      "outputs": [
        {
          "name": "",
          "type": "uint256"
        }
      ],
      "payable": false,
      "stateMutability": "view",
      "type": "function"
    }
  ],
  "bytecode": "0x60806040527fffffffffffffffffffffffffffffffffffffffffffffffffffffffffffffffff60065560016007556001600860006101000a81548160ff0219169083151502179055506032600a5534801561005957600080fd5b5033600160006101000a81548173ffffffffffffffffffffffffffffffffffffffff021916908373ffffffffffffffffffffffffffffffffffffffff160217905550600054600260003073ffffffffffffffffffffffffffffffffffffffff1673ffffffffffffffffffffffffffffffffffffffff168152602001908152602001600020819055504260058190555033600b60006101000a81548173ffffffffffffffffffffffffffffffffffffffff021916908373ffffffffffffffffffffffffffffffffffffffff16021790555061170d806101386000396000f300608060405260043610610107576000357c0100000000000000000000000000000000000000000000000000000000900463ffffffff1680630373a23a1461010c578063095ea7b31461013957806318160ddd1461019e57806319cae462146101c957806323b872dd146101f45780633940e9ee1461027957806351bdd585146102a45780635b3b98a5146102d75780635bee29b714610306578063602512e11461034757806361ca517b1461037457806370a08231146103bf57806376ad03bc146104165780637b262df21461044157806381c8149d1461046e578063a9059cbb14610499578063b90546aa146104fe578063dd62ed3e1461052d578063f2fde38b146105a4575b600080fd5b34801561011857600080fd5b50610137600480360381019080803590602001909291905050506105e7565b005b34801561014557600080fd5b50610184600480360381019080803573ffffffffffffffffffffffffffffffffffffffff1690602001909291908035906020019092919050505061064d565b604051808215151515815260200191505060405180910390f35b3480156101aa57600080fd5b506101b361073f565b6040518082815260200191505060405180910390f35b3480156101d557600080fd5b506101de610748565b6040518082815260200191505060405180910390f35b34801561020057600080fd5b5061025f600480360381019080803573ffffffffffffffffffffffffffffffffffffffff169060200190929190803573ffffffffffffffffffffffffffffffffffffffff1690602001909291908035906020019092919050505061074e565b604051808215151515815260200191505060405180910390f35b34801561028557600080fd5b5061028e610b3a565b6040518082815260200191505060405180910390f35b3480156102b057600080fd5b506102b9610b40565b60405180826000191660001916815260200191505060405180910390f35b3480156102e357600080fd5b50610304600480360381019080803515159060200190929190505050610b46565b005b34801561031257600080fd5b5061033160048036038101908080359060200190929190505050610bbf565b6040518082815260200191505060405180910390f35b34801561035357600080fd5b5061037260048036038101908080359060200190929190505050610bdc565b005b34801561038057600080fd5b506103a96004803603810190808035906020019092919080359060200190929190505050610c42565b6040518082815260200191505060405180910390f35b3480156103cb57600080fd5b50610400600480360381019080803573ffffffffffffffffffffffffffffffffffffffff169060200190929190505050610e40565b6040518082815260200191505060405180910390f35b34801561042257600080fd5b5061042b610e89565b6040518082815260200191505060405180910390f35b34801561044d57600080fd5b5061046c60048036038101908080359060200190929190505050610e8f565b005b34801561047a57600080fd5b50610483610f0e565b6040518082815260200191505060405180910390f35b3480156104a557600080fd5b506104e4600480360381019080803573ffffffffffffffffffffffffffffffffffffffff16906020019092919080359060200190929190505050610f14565b604051808215151515815260200191505060405180910390f35b34801561050a57600080fd5b50610513611178565b604051808215151515815260200191505060405180910390f35b34801561053957600080fd5b5061058e600480360381019080803573ffffffffffffffffffffffffffffffffffffffff169060200190929190803573ffffffffffffffffffffffffffffffffffffffff16906020019092919050505061118b565b6040518082815260200191505060405180910390f35b3480156105b057600080fd5b506105e5600480360381019080803573ffffffffffffffffffffffffffffffffffffffff169060200190929190505050611212565b005b600b60009054906101000a900473ffffffffffffffffffffffffffffffffffffffff1673ffffffffffffffffffffffffffffffffffffffff163373ffffffffffffffffffffffffffffffffffffffff1614151561064357600080fd5b8060078190555050565b600081600360003373ffffffffffffffffffffffffffffffffffffffff1673ffffffffffffffffffffffffffffffffffffffff16815260200190815260200160002060008573ffffffffffffffffffffffffffffffffffffffff1673ffffffffffffffffffffffffffffffffffffffff168152602001908152602001600020819055508273ffffffffffffffffffffffffffffffffffffffff163373ffffffffffffffffffffffffffffffffffffffff167f8c5be1e5ebec7d5bd14f71427d1e84f3dd0314c0f7b2291e5b200ac8c7c3b925846040518082815260200191505060405180910390a36001905092915050565b60008054905090565b60065481565b600081600260008673ffffffffffffffffffffffffffffffffffffffff1673ffffffffffffffffffffffffffffffffffffffff168152602001908152602001600020541015801561081b575081600360008673ffffffffffffffffffffffffffffffffffffffff1673ffffffffffffffffffffffffffffffffffffffff16815260200190815260200160002060003373ffffffffffffffffffffffffffffffffffffffff1673ffffffffffffffffffffffffffffffffffffffff1681526020019081526020016000205410155b80156108275750600082115b80156108b25750600260008473ffffffffffffffffffffffffffffffffffffffff1673ffffffffffffffffffffffffffffffffffffffff1681526020019081526020016000205482600260008673ffffffffffffffffffffffffffffffffffffffff1673ffffffffffffffffffffffffffffffffffffffff1681526020019081526020016000205401115b15610b2e5781600260008673ffffffffffffffffffffffffffffffffffffffff1673ffffffffffffffffffffffffffffffffffffffff1681526020019081526020016000205403600260008673ffffffffffffffffffffffffffffffffffffffff1673ffffffffffffffffffffffffffffffffffffffff1681526020019081526020016000208190555081600360008673ffffffffffffffffffffffffffffffffffffffff1673ffffffffffffffffffffffffffffffffffffffff16815260200190815260200160002060003373ffffffffffffffffffffffffffffffffffffffff1673ffffffffffffffffffffffffffffffffffffffff1681526020019081526020016000205403600360008673ffffffffffffffffffffffffffffffffffffffff1673ffffffffffffffffffffffffffffffffffffffff16815260200190815260200160002060003373ffffffffffffffffffffffffffffffffffffffff1673ffffffffffffffffffffffffffffffffffffffff1681526020019081526020016000208190555081600260008573ffffffffffffffffffffffffffffffffffffffff1673ffffffffffffffffffffffffffffffffffffffff1681526020019081526020016000205401600260008573ffffffffffffffffffffffffffffffffffffffff1673ffffffffffffffffffffffffffffffffffffffff168152602001908152602001600020819055508273ffffffffffffffffffffffffffffffffffffffff168473ffffffffffffffffffffffffffffffffffffffff167fddf252ad1be2c89b69c2b068fc378daa952ba7f163c4a11628f55a4df523b3ef846040518082815260200191505060405180910390a360019050610b33565b600090505b9392505050565b60005481565b60045481565b600b60009054906101000a900473ffffffffffffffffffffffffffffffffffffffff1673ffffffffffffffffffffffffffffffffffffffff163373ffffffffffffffffffffffffffffffffffffffff16141515610ba257600080fd5b80600860006101000a81548160ff02191690831515021790555050565b6000600d6000838152602001908152602001600020549050919050565b600b60009054906101000a900473ffffffffffffffffffffffffffffffffffffffff1673ffffffffffffffffffffffffffffffffffffffff163373ffffffffffffffffffffffffffffffffffffffff16141515610c3857600080fd5b8060068190555050565b60008060008460045460405180838152602001826000191660001916815260200192505050604051809103902091506006546001026000191682600019161115610c8b57600080fd5b600554420390506005811015610ca057600080fd5b60018161025860065402811515610cb357fe5b0401600681905550610e1042811515610cc857fe5b06420360058190555060056009541015610d715760408051908101604052808581526020013373ffffffffffffffffffffffffffffffffffffffff16815250600e600954600581101515610d1857fe5b600202016000820151816000015560208201518160010160006101000a81548173ffffffffffffffffffffffffffffffffffffffff021916908373ffffffffffffffffffffffffffffffffffffffff1602179055509050505b60056009541415610dda57610d876005546112ee565b3373ffffffffffffffffffffffffffffffffffffffff167ff23a961744a760027f8811c59a0eaef0d29cf965578b17412bcc375b52fa39d1856040518082815260200191505060405180910390a2610e21565b846004546001430340604051808481526020018360001916600019168152602001826000191660001916815260200193505050506040518091039020600481600019169055505b6009600081548092919060010191905055506009549250505092915050565b6000600260008373ffffffffffffffffffffffffffffffffffffffff1673ffffffffffffffffffffffffffffffffffffffff168152602001908152602001600020549050919050565b60075481565b600b60009054906101000a900473ffffffffffffffffffffffffffffffffffffffff1673ffffffffffffffffffffffffffffffffffffffff163373ffffffffffffffffffffffffffffffffffffffff16141515610eeb57600080fd5b6001811080610efa5750606481115b15610f0457600080fd5b80600a8190555050565b60055481565b600081600260003373ffffffffffffffffffffffffffffffffffffffff1673ffffffffffffffffffffffffffffffffffffffff1681526020019081526020016000205410158015610f655750600082115b8015610ff05750600260008473ffffffffffffffffffffffffffffffffffffffff1673ffffffffffffffffffffffffffffffffffffffff1681526020019081526020016000205482600260008673ffffffffffffffffffffffffffffffffffffffff1673ffffffffffffffffffffffffffffffffffffffff1681526020019081526020016000205401115b1561116d5781600260003373ffffffffffffffffffffffffffffffffffffffff1673ffffffffffffffffffffffffffffffffffffffff1681526020019081526020016000205403600260003373ffffffffffffffffffffffffffffffffffffffff1673ffffffffffffffffffffffffffffffffffffffff1681526020019081526020016000208190555081600260008573ffffffffffffffffffffffffffffffffffffffff1673ffffffffffffffffffffffffffffffffffffffff1681526020019081526020016000205401600260008573ffffffffffffffffffffffffffffffffffffffff1673ffffffffffffffffffffffffffffffffffffffff168152602001908152602001600020819055508273ffffffffffffffffffffffffffffffffffffffff163373ffffffffffffffffffffffffffffffffffffffff167fddf252ad1be2c89b69c2b068fc378daa952ba7f163c4a11628f55a4df523b3ef846040518082815260200191505060405180910390a360019050611172565b600090505b92915050565b600860009054906101000a900460ff1681565b6000600360008473ffffffffffffffffffffffffffffffffffffffff1673ffffffffffffffffffffffffffffffffffffffff16815260200190815260200160002060008373ffffffffffffffffffffffffffffffffffffffff1673ffffffffffffffffffffffffffffffffffffffff16815260200190815260200160002054905092915050565b600b60009054906101000a900473ffffffffffffffffffffffffffffffffffffffff1673ffffffffffffffffffffffffffffffffffffffff163373ffffffffffffffffffffffffffffffffffffffff1614151561126e57600080fd5b600073ffffffffffffffffffffffffffffffffffffffff168173ffffffffffffffffffffffffffffffffffffffff16141515156112aa57600080fd5b80600b60006101000a81548173ffffffffffffffffffffffffffffffffffffffff021916908373ffffffffffffffffffffffffffffffffffffffff16021790555050565b6112fc600e6000600461147d565b61133e600e600260058110151561130f57fe5b6002020160010160009054906101000a900473ffffffffffffffffffffffffffffffffffffffff16600a610f14565b50611381600e600160058110151561135257fe5b6002020160010160009054906101000a900473ffffffffffffffffffffffffffffffffffffffff166005610f14565b506113c4600e600360058110151561139557fe5b6002020160010160009054906101000a900473ffffffffffffffffffffffffffffffffffffffff166005610f14565b50611407600e60006005811015156113d857fe5b6002020160010160009054906101000a900473ffffffffffffffffffffffffffffffffffffffff166001610f14565b5061144a600e600460058110151561141b57fe5b6002020160010160009054906101000a900473ffffffffffffffffffffffffffffffffffffffff166001610f14565b50600e600260058110151561145b57fe5b6002020160000154600d60008381526020019081526020016000208190555050565b600080600084925083915085600286860381151561149757fe5b0486016005811015156114a657fe5b600202016000015490505b81831115156116b1575b8086846005811015156114ca57fe5b600202016000015410156114e55782806001019350506114bb565b5b85826005811015156114f457fe5b6002020160000154811015611511578180600190039250506114e6565b81831115156116ac57858260058110151561152857fe5b6002020160000154868460058110151561153e57fe5b6002020160000154878560058110151561155457fe5b600202016000016000898660058110151561156b57fe5b600202016000016000849190505583919050555050858260058110151561158e57fe5b6002020160010160009054906101000a900473ffffffffffffffffffffffffffffffffffffffff1686846005811015156115c457fe5b6002020160010160009054906101000a900473ffffffffffffffffffffffffffffffffffffffff1687856005811015156115fa57fe5b600202016001016000898660058110151561161157fe5b6002020160010160008491906101000a81548173ffffffffffffffffffffffffffffffffffffffff021916908373ffffffffffffffffffffffffffffffffffffffff1602179055508391906101000a81548173ffffffffffffffffffffffffffffffffffffffff021916908373ffffffffffffffffffffffffffffffffffffffff160217905550505082806001019350508180600190039250505b6114b1565b818510156116c5576116c486868461147d565b5b838310156116d9576116d886848661147d565b5b5050505050505600a165627a7a72305820af2247fe4dca8cdf933f82fb9e2caeb59567223e0d53d2152f9a825ee8ab1f9b0029",
  "source": "pragma solidity ^0.4.21;\r\n\r\n\r\nimport \"./Token.sol\";\r\n/**\r\n * @title Mineable Token\r\n *\r\n * @dev Turns a wallet into a mine for a specified ERC20 token\r\n */\r\ncontract OracleToken is Token {\r\n\r\n    \r\n    /*Variables*/\r\n\r\n    bytes32 public currentChallenge;\r\n    uint public timeOfLastProof; // time of last challenge solved\r\n    uint256 public difficulty = 2**256 - 1; // Difficulty starts low\r\n    uint256 public baseReward = 1;\r\n    bool public incrementalRewards = true;\r\n    uint count;\r\n\r\n    uint maxRewardPercent = 50;\r\n    address owner;\r\n    string oracleName;\r\n    mapping(uint => uint) values;\r\n    Details[5] first_five;\r\n    struct Details {\r\n        uint value;\r\n        address miner;\r\n    }\r\n \r\n\r\n    /*Events*/\r\n    event Mine(address indexed to, uint value);\r\n\r\n    /*Functions*/\r\n    /**\r\n     * @dev Constructor that sets the passed value as the token to be mineable.\r\n\r\n     */\r\n    constructor() public{\r\n        timeOfLastProof = now;\r\n        owner = msg.sender;\r\n    }\r\n\r\n    modifier onlyOwner() {\r\n    require(msg.sender == owner);\r\n    _;\r\n   }\r\n\r\n\r\n  /**\r\n   * @dev Allows the current owner to transfer control of the contract to a newOwner.\r\n   * @param newOwner The address to transfer ownership to.\r\n   */\r\n  function transferOwnership(address newOwner) onlyOwner public{\r\n    require(newOwner != address(0));\r\n    owner = newOwner;\r\n  }\r\n\r\n    /**\r\n     * @dev Change the difficulty\r\n     * @param _difficulty uint256 difficulty to be set\r\n     */\r\n    function setDifficulty(uint256 _difficulty) onlyOwner public{\r\n        difficulty = _difficulty;\r\n    }\r\n\r\n    /**\r\n     * @dev Change the maximum percent of the total supply that can be rewarded\r\n     * @param _percent uint Maximum percent of the total supply to be rewarded\r\n     */\r\n    function setMaxRewardPercentOfTotal(uint _percent) onlyOwner public {\r\n        if (_percent < 1 || _percent > 100) revert();\r\n        maxRewardPercent = _percent;\r\n    }\r\n\r\n    /**\r\n     * @dev Change the reward\r\n     * @param _baseReward uint256 base reward given when not incremental\r\n     */\r\n    function setBaseReward(uint256 _baseReward) onlyOwner public {\r\n        baseReward = _baseReward;\r\n    }\r\n\r\n    /**\r\n     * @dev Change if the reward should increment or not\r\n     * @param _shouldRewardIncrement bool Wehether the reward should be incremental or not\r\n     */\r\n    function isIncremental(bool _shouldRewardIncrement) onlyOwner public {\r\n        incrementalRewards = _shouldRewardIncrement;\r\n    }\r\n\r\n\r\n\r\n\r\n\r\n\r\n\r\n    /**\r\n     * @dev Proof of work to be done for mining\r\n     * @param nonce uint\r\n     * @return uint The amount rewarded\r\n     */\r\n\r\n    function proofOfWork(uint nonce, uint value) returns (uint256) {\r\n        bytes32 n = sha3(nonce, currentChallenge); // generate random hash based on input\r\n        if (n > bytes32(difficulty)) revert();\r\n        uint timeSinceLastProof = (now - timeOfLastProof); // Calculate time since last reward\r\n        if (timeSinceLastProof < 5 seconds) revert(); // Do not reward too quickly\r\n        difficulty = difficulty * 10 minutes / timeSinceLastProof + 1; // Adjusts the difficulty\r\n\r\n\r\n        timeOfLastProof = now - (now % 3600);\r\n\r\n        if (count<5) {\r\n           first_five[count] = Details({\r\n                value: value,\r\n                miner: msg.sender\r\n            });  \r\n        } \r\n        if(count==5) {\r\n            pushValue(timeOfLastProof);\r\n            emit Mine(msg.sender, value); // execute an event reflecting the change\r\n        }\r\n        else {\r\n        currentChallenge = sha3(nonce, currentChallenge, block.blockhash(block.number - 1)); // Save hash for next proof\r\n        }\r\n        count++;\r\n        return (count);\r\n    }\r\n\r\n    function pushValue(uint _time) internal {\r\n        quickSort(first_five,0,4);\r\n        transfer(first_five[2].miner, 10); // reward to winner grows over time\r\n        transfer(first_five[1].miner, 5); // reward to winner grows over time\r\n        transfer(first_five[3].miner, 5); // reward to winner grows over time\r\n        transfer(first_five[0].miner, 1); // reward to winner grows over time\r\n        transfer(first_five[4].miner, 1); // reward to winner grows over time\r\n        values[_time] = first_five[2].value;\r\n    }\r\n\r\n    function retrieveData(uint _timestamp) public constant returns (uint) {\r\n        return values[_timestamp];\r\n    }\r\n\r\n\r\n\r\n     function quickSort(Details[5] storage arr, uint left, uint right) internal {\r\n        uint i = left;\r\n        uint j = right;\r\n        uint pivot = arr[left + (right - left) / 2].value;\r\n        while (i <= j) {\r\n            while (arr[i].value < pivot) i++;\r\n            while (pivot < arr[j].value) j--;\r\n            if (i <= j) {\r\n                (arr[i].value, arr[j].value) = (arr[j].value, arr[i].value);\r\n                (arr[i].miner, arr[j].miner) = (arr[j].miner, arr[i].miner);\r\n                i++;\r\n                j--;\r\n            }\r\n        }\r\n        if (left < j)\r\n            quickSort(arr, left, j);\r\n        if (i < right)\r\n            quickSort(arr, i, right);\r\n    }\r\n\r\n\r\n    \r\n}",
  "sourcePath": "C:\\users\\lloya\\documents\\angelhack\\angelHackTeam\\contracts\\OracleToken.sol",
  "compiler": {
    "name": "solc",
    "version": "0.4.24+commit.e67f0147.Emscripten.clang"
  },
  "schemaVersion": "2.0.0",
  "updatedAt": "2018-07-07T22:32:47.436Z"
}