{
  "contractName": "Token",
  "abi": [
    {
      "constant": true,
      "inputs": [],
      "name": "total_supply",
      "outputs": [
        {
          "name": "",
          "type": "uint256"
        }
      ],
      "payable": false,
      "stateMutability": "view",
      "type": "function"
    },
    {
      "inputs": [],
      "payable": false,
      "stateMutability": "nonpayable",
      "type": "constructor"
    },
    {
      "anonymous": false,
      "inputs": [
        {
          "indexed": true,
          "name": "owner",
          "type": "address"
        },
        {
          "indexed": true,
          "name": "spender",
          "type": "address"
        },
        {
          "indexed": false,
          "name": "value",
          "type": "uint256"
        }
      ],
      "name": "Approval",
      "type": "event"
    },
    {
      "anonymous": false,
      "inputs": [
        {
          "indexed": true,
          "name": "from",
          "type": "address"
        },
        {
          "indexed": true,
          "name": "to",
          "type": "address"
        },
        {
          "indexed": false,
          "name": "value",
          "type": "uint256"
        }
      ],
      "name": "Transfer",
      "type": "event"
    },
    {
      "constant": true,
      "inputs": [
        {
          "name": "_owner",
          "type": "address"
        }
      ],
      "name": "balanceOf",
      "outputs": [
        {
          "name": "bal",
          "type": "uint256"
        }
      ],
      "payable": false,
      "stateMutability": "view",
      "type": "function"
    },
    {
      "constant": false,
      "inputs": [
        {
          "name": "_to",
          "type": "address"
        },
        {
          "name": "_amount",
          "type": "uint256"
        }
      ],
      "name": "transfer",
      "outputs": [
        {
          "name": "",
          "type": "bool"
        }
      ],
      "payable": false,
      "stateMutability": "nonpayable",
      "type": "function"
    },
    {
      "constant": false,
      "inputs": [
        {
          "name": "_from",
          "type": "address"
        },
        {
          "name": "_to",
          "type": "address"
        },
        {
          "name": "_amount",
          "type": "uint256"
        }
      ],
      "name": "transferFrom",
      "outputs": [
        {
          "name": "",
          "type": "bool"
        }
      ],
      "payable": false,
      "stateMutability": "nonpayable",
      "type": "function"
    },
    {
      "constant": false,
      "inputs": [
        {
          "name": "_spender",
          "type": "address"
        },
        {
          "name": "_amount",
          "type": "uint256"
        }
      ],
      "name": "approve",
      "outputs": [
        {
          "name": "",
          "type": "bool"
        }
      ],
      "payable": false,
      "stateMutability": "nonpayable",
      "type": "function"
    },
    {
      "constant": true,
      "inputs": [
        {
          "name": "_owner",
          "type": "address"
        },
        {
          "name": "_spender",
          "type": "address"
        }
      ],
      "name": "allowance",
      "outputs": [
        {
          "name": "",
          "type": "uint256"
        }
      ],
      "payable": false,
      "stateMutability": "view",
      "type": "function"
    },
    {
      "constant": true,
      "inputs": [],
      "name": "totalSupply",
      "outputs": [
        {
          "name": "",
          "type": "uint256"
        }
      ],
      "payable": false,
      "stateMutability": "view",
      "type": "function"
    }
  ],
  "bytecode": "0x608060405234801561001057600080fd5b5033600160006101000a81548173ffffffffffffffffffffffffffffffffffffffff021916908373ffffffffffffffffffffffffffffffffffffffff160217905550600054600260003073ffffffffffffffffffffffffffffffffffffffff1673ffffffffffffffffffffffffffffffffffffffff16815260200190815260200160002081905550610b48806100a76000396000f300608060405260043610610083576000357c0100000000000000000000000000000000000000000000000000000000900463ffffffff168063095ea7b31461008857806318160ddd146100ed57806323b872dd146101185780633940e9ee1461019d57806370a08231146101c8578063a9059cbb1461021f578063dd62ed3e14610284575b600080fd5b34801561009457600080fd5b506100d3600480360381019080803573ffffffffffffffffffffffffffffffffffffffff169060200190929190803590602001909291905050506102fb565b604051808215151515815260200191505060405180910390f35b3480156100f957600080fd5b506101026103ed565b6040518082815260200191505060405180910390f35b34801561012457600080fd5b50610183600480360381019080803573ffffffffffffffffffffffffffffffffffffffff169060200190929190803573ffffffffffffffffffffffffffffffffffffffff169060200190929190803590602001909291905050506103f6565b604051808215151515815260200191505060405180910390f35b3480156101a957600080fd5b506101b26107e2565b6040518082815260200191505060405180910390f35b3480156101d457600080fd5b50610209600480360381019080803573ffffffffffffffffffffffffffffffffffffffff1690602001909291905050506107e8565b6040518082815260200191505060405180910390f35b34801561022b57600080fd5b5061026a600480360381019080803573ffffffffffffffffffffffffffffffffffffffff16906020019092919080359060200190929190505050610831565b604051808215151515815260200191505060405180910390f35b34801561029057600080fd5b506102e5600480360381019080803573ffffffffffffffffffffffffffffffffffffffff169060200190929190803573ffffffffffffffffffffffffffffffffffffffff169060200190929190505050610a95565b6040518082815260200191505060405180910390f35b600081600360003373ffffffffffffffffffffffffffffffffffffffff1673ffffffffffffffffffffffffffffffffffffffff16815260200190815260200160002060008573ffffffffffffffffffffffffffffffffffffffff1673ffffffffffffffffffffffffffffffffffffffff168152602001908152602001600020819055508273ffffffffffffffffffffffffffffffffffffffff163373ffffffffffffffffffffffffffffffffffffffff167f8c5be1e5ebec7d5bd14f71427d1e84f3dd0314c0f7b2291e5b200ac8c7c3b925846040518082815260200191505060405180910390a36001905092915050565b60008054905090565b600081600260008673ffffffffffffffffffffffffffffffffffffffff1673ffffffffffffffffffffffffffffffffffffffff16815260200190815260200160002054101580156104c3575081600360008673ffffffffffffffffffffffffffffffffffffffff1673ffffffffffffffffffffffffffffffffffffffff16815260200190815260200160002060003373ffffffffffffffffffffffffffffffffffffffff1673ffffffffffffffffffffffffffffffffffffffff1681526020019081526020016000205410155b80156104cf5750600082115b801561055a5750600260008473ffffffffffffffffffffffffffffffffffffffff1673ffffffffffffffffffffffffffffffffffffffff1681526020019081526020016000205482600260008673ffffffffffffffffffffffffffffffffffffffff1673ffffffffffffffffffffffffffffffffffffffff1681526020019081526020016000205401115b156107d65781600260008673ffffffffffffffffffffffffffffffffffffffff1673ffffffffffffffffffffffffffffffffffffffff1681526020019081526020016000205403600260008673ffffffffffffffffffffffffffffffffffffffff1673ffffffffffffffffffffffffffffffffffffffff1681526020019081526020016000208190555081600360008673ffffffffffffffffffffffffffffffffffffffff1673ffffffffffffffffffffffffffffffffffffffff16815260200190815260200160002060003373ffffffffffffffffffffffffffffffffffffffff1673ffffffffffffffffffffffffffffffffffffffff1681526020019081526020016000205403600360008673ffffffffffffffffffffffffffffffffffffffff1673ffffffffffffffffffffffffffffffffffffffff16815260200190815260200160002060003373ffffffffffffffffffffffffffffffffffffffff1673ffffffffffffffffffffffffffffffffffffffff1681526020019081526020016000208190555081600260008573ffffffffffffffffffffffffffffffffffffffff1673ffffffffffffffffffffffffffffffffffffffff1681526020019081526020016000205401600260008573ffffffffffffffffffffffffffffffffffffffff1673ffffffffffffffffffffffffffffffffffffffff168152602001908152602001600020819055508273ffffffffffffffffffffffffffffffffffffffff168473ffffffffffffffffffffffffffffffffffffffff167fddf252ad1be2c89b69c2b068fc378daa952ba7f163c4a11628f55a4df523b3ef846040518082815260200191505060405180910390a3600190506107db565b600090505b9392505050565b60005481565b6000600260008373ffffffffffffffffffffffffffffffffffffffff1673ffffffffffffffffffffffffffffffffffffffff168152602001908152602001600020549050919050565b600081600260003373ffffffffffffffffffffffffffffffffffffffff1673ffffffffffffffffffffffffffffffffffffffff16815260200190815260200160002054101580156108825750600082115b801561090d5750600260008473ffffffffffffffffffffffffffffffffffffffff1673ffffffffffffffffffffffffffffffffffffffff1681526020019081526020016000205482600260008673ffffffffffffffffffffffffffffffffffffffff1673ffffffffffffffffffffffffffffffffffffffff1681526020019081526020016000205401115b15610a8a5781600260003373ffffffffffffffffffffffffffffffffffffffff1673ffffffffffffffffffffffffffffffffffffffff1681526020019081526020016000205403600260003373ffffffffffffffffffffffffffffffffffffffff1673ffffffffffffffffffffffffffffffffffffffff1681526020019081526020016000208190555081600260008573ffffffffffffffffffffffffffffffffffffffff1673ffffffffffffffffffffffffffffffffffffffff1681526020019081526020016000205401600260008573ffffffffffffffffffffffffffffffffffffffff1673ffffffffffffffffffffffffffffffffffffffff168152602001908152602001600020819055508273ffffffffffffffffffffffffffffffffffffffff163373ffffffffffffffffffffffffffffffffffffffff167fddf252ad1be2c89b69c2b068fc378daa952ba7f163c4a11628f55a4df523b3ef846040518082815260200191505060405180910390a360019050610a8f565b600090505b92915050565b6000600360008473ffffffffffffffffffffffffffffffffffffffff1673ffffffffffffffffffffffffffffffffffffffff16815260200190815260200160002060008373ffffffffffffffffffffffffffffffffffffffff1673ffffffffffffffffffffffffffffffffffffffff168152602001908152602001600020549050929150505600a165627a7a72305820ab650228fcb1144f45907515ecc12d155e50dbb1a24ee6980f8d6ef414cc23bf0029",
  "source": "pragma solidity ^0.4.21;\r\n\r\n\r\ncontract Token  {\r\n\r\n    uint public total_supply;\r\n    address owner;\r\n    mapping(address => uint) internal balances;\r\n    mapping(address => mapping (address => uint)) internal allowed;\r\n    \r\n    event Approval(address indexed owner, address indexed spender, uint256 value);\r\n    event Transfer(address indexed from, address indexed to, uint256 value);\r\n\r\n    /**\r\n     * @dev Constructor that sets the passed value as the token to be mineable.\r\n\r\n     */\r\n    constructor() public{\r\n        owner = msg.sender;\r\n        balances[address(this)] = total_supply;\r\n    }\r\n\r\n    \r\n    /**\r\n    *@param _owner is the owner address used to look up the balance\r\n    *@return Returns the balance associated with the passed in _owner\r\n    */\r\n    function balanceOf(address _owner) public constant returns (uint bal) { \r\n        return balances[_owner]; \r\n    }\r\n\r\n    /**\r\n    *@dev Allows for a transfer of tokens to _to\r\n    *@param _to The address to send tokens to\r\n    *@param _amount The amount of tokens to send\r\n    */\r\n    function transfer(address _to, uint _amount) public returns (bool) {\r\n        if (balances[msg.sender] >= _amount\r\n        && _amount > 0\r\n        && balances[_to] + _amount > balances[_to]) {\r\n            balances[msg.sender] = balances[msg.sender] - _amount;\r\n            balances[_to] = balances[_to] + _amount;\r\n            emit Transfer(msg.sender, _to, _amount);\r\n            return true;\r\n        } else {\r\n            return false;\r\n        }\r\n    }\r\n\r\n    /**\r\n    *@dev Allows an address with sufficient spending allowance to send tokens on the behalf of _from\r\n    *@param _from The address to send tokens from\r\n    *@param _to The address to send tokens to\r\n    *@param _amount The amount of tokens to send\r\n    */\r\n    function transferFrom(address _from, address _to, uint _amount) public returns (bool) {\r\n        if (balances[_from] >= _amount\r\n        && allowed[_from][msg.sender] >= _amount\r\n        && _amount > 0\r\n        && balances[_to] + _amount > balances[_to]) {\r\n            balances[_from] = balances[_from] - _amount;\r\n            allowed[_from][msg.sender] = allowed[_from][msg.sender] - _amount;\r\n            balances[_to] = balances[_to] + _amount;\r\n            emit Transfer(_from, _to, _amount);\r\n            return true;\r\n        } else {\r\n            return false;\r\n        }\r\n    }\r\n\r\n    /**\r\n    *@dev This function approves a _spender an _amount of tokens to use\r\n    *@param _spender address\r\n    *@param _amount amount the spender is being approved for\r\n    *@return true if spender appproved successfully\r\n    */\r\n    function approve(address _spender, uint _amount) public returns (bool) {\r\n        allowed[msg.sender][_spender] = _amount;\r\n        emit Approval(msg.sender, _spender, _amount);\r\n        return true;\r\n    }\r\n\r\n    /**\r\n    *@param _owner address\r\n    *@param _spender address\r\n    *@return Returns the remaining allowance of tokens granted to the _spender from the _owner\r\n    */\r\n    function allowance(address _owner, address _spender) public view returns (uint) {\r\n       return allowed[_owner][_spender]; }\r\n\r\n    /**\r\n    *@dev Getter for the total_supply of wrapped ether\r\n    *@return total supply\r\n    */\r\n    function totalSupply() public constant returns (uint) {\r\n       return total_supply;\r\n    }\r\n\r\n}\r\n\r\n",
  "sourcePath": "C:\\users\\lloya\\documents\\angelhack\\angelHackTeam\\contracts\\Token.sol",
  "compiler": {
    "name": "solc",
    "version": "0.4.24+commit.e67f0147.Emscripten.clang"
  },
  "schemaVersion": "2.0.0",
  "updatedAt": "2018-07-08T00:55:12.764Z"
}